:020000040800F2
:1000000058450020A1010008D70F00089D0F0008E7
:10001000D50F00083F0300086F290008000000000A
:100020000000000000000000000000001D14000897
:100030004303000800000000E50F00081F1400083B
:10004000BB010008BB010008BB010008BB010008A0
:10005000BB010008BB010008BB010008BB01000890
:10006000BB010008BB010008BB010008BB01000880
:10007000BB010008BB010008BB010008BB01000870
:10008000BB010008BB010008BB010008BB01000860
:10009000BB010008BB010008BB010008BB01000850
:1000A000BB010008BB010008BB010008BB01000840
:1000B000BB010008BB010008BB010008BB01000830
:1000C000BB010008BB010008BB010008BB01000820
:1000D000BB010008BB010008BB010008BB01000810
:1000E000BB010008BB010008BB010008BB01000800
:1000F000BB010008BB010008BB010008BB010008F0
:10010000BB010008BB010008BB010008BB010008DF
:10011000BB010008BB010008BB010008BB010008CF
:10012000BB010008BB010008BB010008BB010008BF
:10013000BB0100080000000000000000BB01000837
:10014000BB010008BB010008BB010008D90F000873
:10015000BB010008BB010008BB010008BB0100088F
:10016000BB010008BB010008BB010008BB0100087F
:10017000BB010008BB0100080000000000000000F7
:10018000BB010008BB010008DFF80CD000F09AF8B2
:1001900000480047C92B000858450020C0BA7047E6
:1001A0000648804706480047FEE7FEE7FEE7FEE711
:1001B000FEE7FEE7FEE7FEE7FEE7FEE7BD14000808
:1001C000890100082DE9F05F0546002092469B4614
:1001D00088460646814640241BE02846414647465D
:1001E000224600F05FF853465A46C01A914110D398
:1001F00011461846224600F046F82D1A67EB010812
:100200004F4622460120002100F03DF817EB00097F
:100210004E41201EA4F10104DFDC484631462A4647
:100220004346BDE8F09F40EA01039B0703D009E085
:1002300008C9121F08C0042AFAD203E011F8013BD2
:1002400000F8013B521EF9D27047D2B201E000F82B
:10025000012B491EFBD270470022F6E710B513466A
:100260000A4604461946FFF7F0FF204610BD10B5B8
:10027000044604E00B7800F8013B03B1491C521E10
:10028000F8D2204610BD202A04DB203A00FA02F101
:10029000002070479140C2F1200320FA03F3194374
:1002A00090407047202A04DB203A21FA02F0002116
:1002B000704721FA02F3D040C2F120029140084376
:1002C00019467047064C074D06E0E06840F0010310
:1002D00094E8070098471034AC42F6D3FFF758FF74
:1002E0004C3000086C30000870B58C1810F8015BB9
:1002F00015F0070301D110F8013B2A1106D110F8BF
:10030000012B03E010F8016B01F8016B5B1EF9D1C2
:100310002B0705D40023521E0DD401F8013BFAE748
:1003200010F8013BCB1A921C03E013F8015B01F8B3
:10033000015B521EF9D5A142D8D3002070BDFEE763
:100340007047704770B50C460A490546F2200860B0
:100350002868A0420CD000F0FDF822460023294670
:10036000022000F0B9F806460228F6D000F0AAF8FC
:10037000304670BD0C3C0240064A136823F44073BB
:10038000136013681360136843F001031360017076
:1003900070470000103C0240094910B50C6824F475
:1003A00040740C600C6844F440740C600C6844F0B9
:1003B00001040C600260BFF36F8F436010BD00004A
:1003C000103C0240074A136823F44073136013681B
:1003D00043F480731360136843F0010313600180DA
:1003E00070470000103C0240074A136823F4407332
:1003F0001360136843F400731360136843F0010340
:100400001360016070470000103C02401749086803
:10041000C206174805D5C26942F01002C261102217
:100420000A600A68920605D5C26942F00802C261F4
:1004300020220A600A68520605D5C26942F0040209
:10044000C26140220A600A68120605D5C26942F0FC
:100450000202C26180220A600A68920705D5C26959
:1004600042F02002C2610220086070470C3C02404A
:10047000BC02002070B5114904460020C86100F09C
:100480000FFA06460E4D09E0601C07D024B100F0BB
:1004900007FA801BA04201D9032070BD2868C00361
:1004A000F2D42868C00701D001202860286810F025
:1004B000F200F2D0FFF7AAFF012070BDBC020020BD
:1004C0000C3C02400348016841F0004101600020FB
:1004D00070470000103C02402DE9F0471B4E0546D6
:1004E0001446307E1F468946012808D00120307608
:1004F0004CF250384046FFF7BDFF18B114E002201F
:10050000BDE8F0879DB1012D16D0022D19D02246ED
:100510003B464846FFF740FF4046FFF7ABFF0C491C
:100520000A6822F001020A6000213176E8E7E1B2B0
:100530004846FFF721FFEFE7A1B24846FFF742FF29
:10054000EAE721464846FFF74FFFE5E7BC020020F7
:10055000103C0240074900200A68002A09DA054ACF
:10056000054B0C3A1360054B13600968002900DA4B
:1005700001207047103C024023016745AB89EFCD55
:100580002DE9F04F0022DFF838B101264FF00F09B6
:1005900006FA02F401EA0403A3427DD122F0030724
:1005A0005F44D7F8088895074FEA157C09FA0CFADA
:1005B0000AEA0805DFF80C81404502D14FF0000837
:1005C00032E0DFF80481404502D14FF001082BE012
:1005D000DFF8F880404502D14FF0020824E0DFF850
:1005E000F080404502D14FF003081DE0DFF8E480C1
:1005F000404502D14FF0040816E0DFF8DC804045AA
:1006000002D14FF005080FE0DFF8D080404502D15D
:100610004FF0060808E0DFF8C880404502D14FF0EF
:10062000070801E04FF0080808FA0CF8A84522D1A5
:100630002C4DD5F800C02CEA030CC5F800C005F11C
:10064000040CDCF800509D43CCF800500CF104057C
:10065000D5F800C02CEA030CC5F800C02D1DD5F854
:1006600000C02CEA030CC5F800C0D7F8085825EAEA
:100670000A05C7F80858056857000323BB409D4387
:100680000560D50800EB8505D5F820C057074FEA6F
:10069000D76809FA08F700E00CE02CEA070CC5F867
:1006A00020C0C5689D43C5604568A5434560846812
:1006B0009C438460521C102AFFF46AAFBDE8F08F9F
:1006C00000300140000002400004024000080240E7
:1006D000000C0240001002400014024000180240CA
:1006E000001C0240003C01402DE9F84F00224FF071
:1006F000010803254FF00F0E0B6808FA02F423409F
:10070000A3426ED14E68012E05D0022E03D0112EC9
:1007100001D0122E12D186684FEA420C05FA0CF76E
:10072000BE43CF6807FA0CF7374387604668A64395
:100730000C79C4F30014944034434460C6685700F5
:1007400005FA07FC8C6826EA0C06BC403443C460FA
:100750004C68022C01D0122C13D1D40800EB840475
:10076000A346D4F8209054074FEAD46A0EFA0AF64A
:1007700029EA06090E6906FA0AF646EA0906CBF8DE
:10078000206006680C7926EA0C0604F00304BC40DD
:10079000344304604C68E40065D5364C266846F462
:1007A00080462660246822F0030604F48044009406
:1007B000314C3444A446D4F808489607370F0EFA53
:1007C00007F6B4432D4EB04201D1002624E02C4E52
:1007D000B04201D101261FE02A4EB04202D10226CA
:1007E0001AE040E0284EB04201D1032614E0274E23
:1007F000B04201D104260FE0254EB04201D10526BA
:100800000AE0244EB04201D1062605E0224EB04255
:1008100001D1072600E00826BE402643CCF8086830
:100820001E4E34684F689C43FF0300D51C43346060
:100830001A4C241D26684F689E43BF0300D51E43F3
:100840002660164E083634684F689C43FF0200D578
:100850001C433460114E0C3634684F689C43BF0211
:1008600000D51C433460521C102AFFF445AFBDE88C
:10087000F88F000044380240003001400000024080
:100880000004024000080240000C02400010024038
:100890000014024000180240001C0240003C0140CD
:1008A000014880687047000000000020024881680D
:1008B0000278114481607047000000200B4810B599
:1008C000016841F400710160016841F480610160D8
:1008D000016841F480710160032000F07FF800207E
:1008E00000F006F800F024F8002010BD003C0240A3
:1008F00070B50D4D04464FF47A712878B1FBF0F0D5
:100900000A490968B1FBF0F000F0F8FA48B9102C78
:1009100007D200222146501E00F040F800206C60F3
:1009200070BD012070BD0000000000200C00002000
:100930000A4808B5016841F480410160006800F48C
:10094000804000900548001F016841F0805101601F
:10095000006800F08050009008BD0000443802405C
:1009600000280DDB00F01F020121914040098000AA
:1009700000F1E020C0F88011BFF34F8FBFF36F8FFD
:100980007047002809DB00F01F0201219140400957
:10099000800000F1E020C0F800117047F0B40E4B69
:1009A0001B680C46C3F30223C3F10705042D00D9CD
:1009B0000425191D072901D2002300E0DB1E0126B2
:1009C00006FA05F1491E214099409E40761E1640C8
:1009D0003143F0BC01F0F4BF0CED00E0064900F03B
:1009E000070208684FF6FF03184040EA0220034A56
:1009F00010430860704700000CED00E00000FA05AD
:100A00002DE9F0470E46050065D0DFF81481D8F8CF
:100A10000000F7B200F00F00B04207D288F8007073
:100A2000D8F8000000F00F00B04254D128683D4CC7
:100A3000810712D5400703D5206840F4E0502060BC
:100A40002878000703D5206840F4604020602068C3
:100A5000A96820F0F000084320602878C0072DD056
:100A6000304968680839012812D0022813D00328B9
:100A700011D00968890700292DDA216821F00301C6
:100A800001432160FFF70CFF814641F2883A0EE0F6
:100A900009688903EFE709688901ECE7FFF700FFC0
:100AA000A0EB0901514502D90320BDE8F087206879
:100AB000696800F00C00B0EB810FEFD1D8F800109E
:100AC000404601F00F01B14207D90770006800F0FD
:100AD0000F00B04201D00120E7E72878400705D594
:100AE0002068E96820F4E050084320602878000777
:100AF00006D52068296920F4604040EAC1002060E2
:100B000000F01EF82168084AC1F30311515CC84087
:100B10000649086006480068FFF7EAFE0020C4E7BF
:100B2000003C024008380240902E00080C000020D3
:100B30000400002001480068704700000C000020FD
:100B4000154810B5006810F00C02144813D041107D
:100B5000042A0FD0082A0ED10F4C241F22682368C4
:100B600002F03F025B0207D52068C0F38810A0FBAB
:100B7000010106E0084610BD2168C1F38811A1FB00
:100B800000010023FFF71EFB2168C1F30141491C4E
:100B90004900B0FBF1F010BD083802400024F40019
:100BA0002DE9F84F04006ED02078DFF83C93C007A1
:100BB000A9F104054AD009F104000168C1F38101DB
:100BC000012908D00068C0F3810002280AD1D9F8B1
:100BD0000000400206D52868800337D560680028E9
:100BE000E1D033E06068B0F5803F10D0B0F5A02FC1
:100BF000286810D020F480302860286820F48020F5
:100C000028606068A8B1FFF74BFE06460DE0286833
:100C100040F48030F4E740F480202860F7E700BF1C
:100C2000FFF73EFE801B642873D828688003F7D541
:100C30000CE0FFF735FE064605E000BFFFF730FE8B
:100C4000801B6428F0D828688003F7D42078DFF868
:100C50009C8280074FF0000A3ED5A348001D016822
:100C600011F00C0F08D00068C0F3810002280BD1EE
:100C7000D9F80000400207D42868800716D5E0683C
:100C8000012800D112E02BE1E068B8B10120C8F8DA
:100C90000000FFF705FE064605E000BFFFF700FE77
:100CA000801B0228C0D828688007F7D528682169EA
:100CB00020F0F80040EAC10028600DE0C8F800A06C
:100CC000FFF7EEFD064604E0FFF7EAFD801B022871
:100CD0001FD828688007F7D42078000722D5824ED5
:100CE00083486169703671B101210160FFF7D8FD59
:100CF000074604E0FFF7D4FDC01B022809D830687E
:100D00008007F7D50EE0C0F800A0FFF7C9FD074641
:100D100005E082E0FFF7C4FDC01B02287DD83068E3
:100D20008007F7D42078400768D5DFF8BCB10027EA
:100D30000BF13C0BDBF80000C0000BD4DBF800101B
:100D400041F08051CBF80010DBF80000012700F0E3
:100D500080500090674E3068C00510D4306840F471
:100D600080703060FFF79CFD009005E0FFF798FD74
:100D70000099401A022850D83068C005F6D55A4E5E
:100D8000A0686C3601280FD00528306810D020F0FC
:100D900001003060306820F004003060A068B8B115
:100DA000FFF77EFD00900FE0306840F00100F4E7AF
:100DB00040F004003060F7E7FFF772FD0099411A38
:100DC00041F28830814266D830688007F4D50EE061
:100DD000FFF766FD009007E0FFF762FD0099411AFA
:100DE00041F28830814256D830688007F4D42FB160
:100DF000DBF8001021F08051CBF80010A069C8B3D7
:100E00003949091D0968C1F3810102294AD0022824
:100E1000504607D0C8F8600000E03CE0FFF740FD16
:100E200004463BE04746C8F86000FFF739FD064638
:100E300005E000BFFFF734FD801B02282BD828688F
:100E40008001F7D4D4E907010843A16A2A4A490876
:100E500002EB0141626A41EA8211084394F82C10C6
:100E600040EA0161C9F8001001203866FFF718FD5B
:100E7000044606E036E000BFFFF712FD001B022823
:100E800009D828688001F7D52CE000BFFFF708FDDE
:100E9000001B022802D90320BDE8F88F28688001D2
:100EA000F4D41FE00128F7D0D9F80000E26900F47B
:100EB0008001914214D1226A00F03F0191420FD18A
:100EC00047F6C071626A0140914209D1A26A00F4FA
:100ED0004031914204D1E16A00F07060884201D053
:100EE0000120D9E70020D7E704380240000047423C
:100EF000800E4742007000400000FFFF10B5401E0A
:100F0000B0F1807F01D3012010BD4FF0E02460617B
:100F10000F21601701F054FD0020A061072020611F
:100F2000002010BD04484FF0A0410068C160034993
:100F30000161034941617047C42E0008610F000838
:100F4000450F000810B54FF4C0510448FFF718FBD7
:100F5000BDE810404320FFF703BD00000000024041
:100F600000B585B04FF4C0500090022001900020E1
:100F70000290032003900A20049069460648FFF778
:100F8000B3FB002211464320FFF708FD4320FFF783
:100F9000F8FC05B000BD000000000240FEE70000C4
:100FA000084A10B51368012100EB4004DB681020EB
:100FB00000EBC4001B5899711268D2681058C171B7
:100FC00010BD0000502F0008C06801EB410100EB8C
:100FD000C1007047FEE7FEE70148006801F0BCB9B8
:100FE000C42E0008704701F039BC2DE9F0470446D3
:100FF000002590F82302A84604F2232704F11406E2
:10100000232857D00EDC1A287BD006DC00287DD0A0
:10101000032878D0122877D12DE01B2801D01E2874
:101020007CD1C5E02A280ED004DC25286DD02828E4
:1010300074D104E02F280AD05A286FD197E02046B7
:1010400000F064F99FE0204600F09EF99BE094F8E0
:1010500021122046FFF7B8FF7978890701D52422AD
:1010600007E00069D4E9932100681144814247D91F
:101070002122052159E0204694F82112FFF7A4FF10
:101080008046B7F90300FFF789F885B2787828B170
:10109000052739463046FFF7DFF807E0D8F8141087
:1010A00030460F793F1D3A46FFF7BDF8AF4226D9CB
:1010B0002F4624E0204694F82112FFF785FF814651
:1010C0000C25B7F90700FFF769F8C6F8008087B26A
:1010D000C6F80480C6F808800820F070D9F810001F
:1010E0000068401E00BA706002203072D9F810000B
:1010F000B0F90400FFF752F870810C2F58D23D462A
:1011000056E02DE002E014E008E03EE094F8211201
:101110002046FFF759FFD4F81C1209B12022A8E796
:101120000069807980BB3A220221204600F0E6F86F
:101130003EE0B846122704F5127539463046FFF7EF
:101140008BF8702030700B20F0711DB12978B170D0
:101150006978317398F804001228D0D20746CEE798
:10116000C6F80080C6F804800825387909E008250B
:10117000B7F90600FFF712F8C6F8008080B2C6F88B
:101180000480082814D2054612E094F82112204663
:10119000FFF71AFF016900258A79002AC3D0096880
:1011A000491E0ABA326000690825808801BA716058
:1011B000D4F81C02A84200D2054694F84002002848
:1011C00013D194F8440200280FD1002D0DD0ABB2FA
:1011D000617C3246206800F0D4FBD4F83C02401B0E
:1011E000C4F83C02032084F84402BDE8F0872DE9EE
:1011F000F041044690F82112FFF7E6FED4F85012B1
:101200004FF40075A94200D20D46016994F821629D
:10121000D0F808C089883046B5FBF1F293B2D4F813
:101220004C22B2FBF1F204F114010F46E047060034
:1012300005D011220421204600F060F819E0ABB27D
:10124000617C3A46206800F09CFBD4F84C022844AC
:10125000C4F84C02D4F85002401BC4F85002D4F831
:101260003C12A1EB0501C4F83C1202D1032084F822
:1012700044023046BDE8F0812DE9F041044690F883
:101280002112FFF7A1FED4F850124FF40075A942C5
:1012900000D20D46016994F82162D0F80CC089880B
:1012A0003046B5FBF1F293B2D4F84C22B2FBF1F226
:1012B00004F114010F46E047060005D00322042183
:1012C000204600F01BF816E0D4F84C022844C4F87D
:1012D0004C02D4F85002401BC4F85002D4F83C121F
:1012E000A1EB0501C4F83C1205D0ABB2217C3A4613
:1012F000206800F0D6FA3046BDE8F08180F8481248
:1013000080F84922012180F8401270472DE9F04110
:10131000044600F2232790F82112FFF755FE0546F8
:10132000D7F8020006BAB7F90700FEF737FF94F8BE
:10133000201280B241B129698A795AB10B683218FA
:101340009A420AD9212200E0202205212046FFF7F7
:10135000D5FF15E03A220221F8E789887143C4F8E5
:101360004C12296989884143C4F85012D4F81C02F0
:101370008842E9D1022084F844022046FFF737FF73
:10138000D4F81C02BDE8F0812DE9F041044600F2DA
:10139000232690F82112FFF717FE0546D6F8020023
:1013A00007BAB6F90700FEF7F9FE81B294F82002F9
:1013B0004FF4007608B1202209E0286982795AB1F9
:1013C000C2795AB103687A189A420AD921220521B2
:1013D0002046FFF793FF1EE03A2200E02722022179
:1013E000F6E780887843C4F84C02286985884D4325
:1013F000C4F85052D4F81C02A842DCD12068B5428F
:1014000000D22E46012184F84412B3B2217C04F1AB
:10141000140200F046FA3046BDE8F0817047FFF74D
:1014200045BA000030B593B030216846FEF714FF8E
:1014300014210CA8FEF710FF1E480025016841F09A
:1014400080510160006800F0805011901A480168D6
:1014500041F4804101600068022400F48040119052
:1014600001200090000401908001CDE90640082091
:1014700008904FF4A870CDE9090407200B90684646
:10148000FFF78EFB08B172B6FEE70CA90F2081E8CA
:1014900031004FF4A0500F904FF480501090052170
:1014A0000CA8FFF7ADFA002801D072B6FEE713B022
:1014B00030BD00004038024000700040054801681F
:1014C00041F47001016003494FF000608039086009
:1014D0007047000088ED00E02DE9F0410C4605461C
:1014E00091F82910012003293DD22048C5E9004088
:1014F0000120687200202872A883E97C01F00F00A7
:10150000062809D2204600F050F9032181720821F3
:10151000018194F829100173A97C204600F045F957
:10152000022686724027078194F829100173697C8E
:10153000204600F03AF98672078194F82910017369
:1015400094F8290004EB8000C56294F82900401C3F
:10155000C0B284F8290004EB8000C56214F8290F9A
:10156000401C20700020BDE8F0810000A02F000882
:1015700030B4447C13460A460068214630BC00F073
:1015800090B930B4847C13460A460068214630BCCA
:1015900000F0F7B92DE9F0414FF000080C4606467F
:1015A0000927454612E000BF06EB8500C06A4045AA
:1015B0000AD04368804629461B68E2190BB1984758
:1015C00000E00020384487B26D1CEDB296F8290087
:1015D000A842E9D80920207002206070678096F840
:1015E00029002071012060714020A071306880794D
:1015F00040F08000E07130688088400820723846F2
:10160000BDE8F08101F014B810B50446B0F8400010
:10161000618988420ED2B4F8441088420AD3491E28
:10162000084207D100232046BDE810401A46802119
:1016300001F0DDB8012084F847002079010617D5B4
:1016400094F8281049B100F01F00012805D1207A34
:1016500004EB8000C06A00F059FA052184F8A71055
:1016600020460023BDE810401A46194601F0B4B8E0
:1016700010BD10B504464089002810D0207900061E
:101680000DD494F8280028B1207A04EB8000C06AB9
:1016900000F03CFA2046BDE8104000F027B810BD2D
:1016A00010B590F8A7200123032A08D1438904220A
:1016B00080F8A7200A46002101F08EF80023184682
:1016C00010BD10B590F8A7400123032C0CD143891D
:1016D000934200D21A46042380F8473013460A4644
:1016E000802101F084F80023184610BD0521002355
:1016F00080F847101A46802101F079B810B50179B9
:10170000032211F0600F04D0C1F34113022B42D029
:1017100049E0437900F1FC010A2B44D2DFE803F0F1
:1017200023314329430805431D1600F04DF939E0E4
:101730000189032271BB418961BB90F8281049BB24
:10174000817901F07F0101F080F822E081790322A4
:10175000012928D800F0FEF91BE090F8282080F835
:10176000FC20012202E0C28C0A800222FFF7A9FFBE
:1017700018E0C1880322012915D1C18C41F0020172
:1017800006E0C188032201290DD1C18C21F002019C
:10179000C184002207E04379012B04D1090602D558
:1017A00000F082F90246104610BD7F2905D901F0EC
:1017B0000F0100EB01103C30704700EB01109C3032
:1017C00070477F2905D901F00F0100EB01103C3073
:1017D000704700EB01109C30704770B50C46054611
:1017E00000F06CFF21462846FFF7DFFF0021C172A1
:1017F00070BD70B50C46054600F060FF21462846D6
:10180000FFF7DFFF0021C17270BD7F2905D901F00C
:101810000F0300EB03103C3002E000EB01109C30A2
:1018200007231370052353709170817AD17000895A
:101830009080012090710720704700F13C02914296
:1018400001D1FFF7E1BE0122CA720A7B00EB8200E0
:10185000C06A00F067B970B50C46054600F074FF29
:1018600021462846FFF7A1FF0121C17270BD70B566
:101870000C46054600F068FF21462846FFF7A1FF09
:101880000121C17270BD0122CA7200F19C02914215
:1018900001D1FFF7EEBE0A7B00EB8200C06A00F0C8
:1018A0004DB970B5054605EB0114022094F8A76008
:1018B0009C34012E02D0A67A012E05D10420E072BC
:1018C000284600F089FF002070BD2DE9F041067A1E
:1018D000044606F00F074FF00308062F4CD217B34B
:1018E00094F82800F8B1207910F0600F44D17F2ED1
:1018F00003D904EB07153C3502E004EB06159C35D3
:10190000607968B301280FD0032835D1E08850B939
:10191000E87A4FF0000802282ED03146204600F029
:1019200072FF0220E87227E0E08828BBE87A4FF0D7
:101930000008022820D13146204600F0A3FE0120F5
:10194000E8720020A880287BBE4204EB8000294674
:10195000C06A02D000F0E6F80EE000F0EFF80BE00D
:10196000E87A04F1FC01022809D000200880022254
:101970002046FFF7A6FE80464046BDE8F0810120E4
:10198000F4E770B5054601F00F0405EB04140220DE
:1019900094F847603C34012E02D0A67A012E05D17E
:1019A0000420E072284600F022FF002070BD70B5D0
:1019B0000C46054600F027FF21462846FFF701FFA9
:1019C0000221C17270BD00002DE9F041054600F111
:1019D000FC04C0880327010A012906D0022917D078
:1019E00003291AD00F2959D145E0204612222D494A
:1019F000FEF719FC95F8A400E07128681226008A09
:101A000020812868008B60812868408BA0813FE09E
:101A100021462846FFF7BEFD12E0C0B2202819D0AB
:101A200003DC80B1102804D111E0302818D0402800
:101A300013D0284600F0EAF880B3214600F049F8B8
:101A4000060025D12AE0174C241F042620E0286830
:101A5000C068F2E728684069EFE728680068ECE7AB
:101A6000122626700320607028680822A11CC06915
:101A700000F05AFF0CE02146284600F025F90949FC
:101A80000646282214312046FEF7CDFBA6842826E0
:101A9000324621462846FFF714FE07463846BDE881
:101AA000F0810000CC2E000870B5044600F1FC0562
:101AB0000089032607280AD12946204600F004F9A8
:101AC000020004D029462046FFF7FBFD06463046BB
:101AD00070BD02238A1C0B7003234B70437833B90B
:101AE0000FE022F8023B0B789B1C0B70401C037824
:101AF000002BF6D108E022F8023B0B789B1C0B7000
:101B0000801C0388002BF6D108787047416849692A
:101B1000002900D0084770474168C968002900D0F3
:101B2000084770474268D269002A00D010477047C2
:101B300041688968002900D0084770474268926967
:101B4000002A00D0104770474168096901B1084771
:101B5000032070472DE9F041044690F828000E4616
:101B6000B04222D080B10025A84609E004EB8507E9
:101B7000F86AFFF7D1FFF96A6D1CEDB281F80880B1
:101B800094F82900A842F1D884F82860002E0CD0DF
:101B9000002506E004EB8500C06AFFF7C9FF6D1C55
:101BA000EDB294F82900A842F4D8BDE8F08170B5F0
:101BB000027A032100EB8203DC6A90F828301BB321
:101BC00090F8293093421FD9027912F0600F04D1A6
:101BD00042790A2A05D00B2A0AD02046FFF7B4FF23
:101BE00004E0012204F10801FFF76BFD01460BE060
:101BF0008579607AA84207D92046FFF78DFF2572C4
:101C00002046FFF795FF0021084670BD10B503463A
:101C10008079002200F00F01491ECCB2C0F30311FD
:101C200003EB840093F82930C06AA34204D94268C8
:101C300052680AB190470246104610BD002201606A
:101C400080F82820C28C22F00202C2848B799B0982
:101C500063F30002C2844022A0F84420A0F8A4202C
:101C600000F058BC2DE9F0410C46054691F82910CA
:101C70000120042924D21348C5E9004001206872DC
:101C800000202872697C2046FFF79BFD02268672A1
:101C90004027078194F829100173297C2046FFF71B
:101CA00090FD8672078194F82910017394F8290039
:101CB00004EB8000C56214F8290F401C207000203E
:101CC000BDE8F081D82F00082DE9F84F82464FF08B
:101CD000000B0A200880A1F802B02E4A4A600822B0
:101CE0004A8101F10A0601228A8186F804B00D4674
:101CF00081F80FB001F11204D9465F4631E000BF10
:101D00000AEB8700C06A484529D081460820208018
:101D100002206080277184F805B0D9F80400A0463D
:101D20000834006A009070B1142020800320608085
:101D30001021201DFEF790FA0822201D0099FEF7C1
:101D400096FA20880444B8F8000000EB0801A1428C
:101D500004D2A4EB0800A8F8060000E0241A7F1CB7
:101D6000FFB29AF82900B842CAD831888819A0422F
:101D700002D2A01BF08000E0641A28882844A04208
:101D800002D2601B288101E0A5F808B02889BDE8CF
:101D9000F88F00000000030610B580F825100446F7
:101DA0000021FFF7D7FE204600F0CCFA012084F88E
:101DB000A70010BD70B50446032084F8A700207961
:101DC00010F01F0004D0012806D002280CD107E033
:101DD0002046FFF793FC06E02046FFF7E8FE02E00E
:101DE0002046FFF772FD68B18021204600F00BFD10
:101DF000022584F847500021204600F004FD84F8B5
:101E0000A75070BD60890028FBD12046BDE8704016
:101E1000FFF76CBCF0B50D4AC168914201D10623B1
:101E200000E004230021FF2240F6081440F60835A4
:101E3000C66804EB4117F251C66805EB4117F25131
:101E4000491CC9B29942F3D3F0BD00000000044020
:101E5000C068CA43D0F8041862F34101C0F80418FE
:101E60007047C168D1F81C2842F00112C1F81C2843
:101E7000C168D1F80029120423D4B0F84430D1F855
:101E8000002963F30A02C1F80029C168D1F80029CA
:101E900022F44022C1F80029C168D1F8002922F0BB
:101EA0007072C1F80029C168D1F8002942F080524F
:101EB000C1F80029C168D1F8002942F40042C1F8F4
:101EC0000029C168D1F8002B12041CD4B0F8A4304A
:101ED000D1F8002B63F30A02C1F8002BC168D1F8D6
:101EE000002B22F44022C1F8002BC168D1F8002B4E
:101EF00042F08052C1F8002BC168D1F8002B42F4A7
:101F00000042C1F8002B00F057B910B54FF430640F
:101F1000C26800EB011304EB41142244B3F8A24061
:101F20009C33C4B1B9B119890C44641E94FBF1F11E
:101F3000146961F3DC441461DC88116964F31201F3
:101F40001161C1688968890601D519685161997A5A
:101F5000012907D012E01169012464F3DC41116109
:101F60001C89EAE7C068D0F80808C005106802D4E8
:101F700040F0005001E040F080501060106840F0E8
:101F80000440106010BDF0B401F00F044FF4106570
:101F9000C26800EB011305EB44142244B3F842403D
:101FA0003C330CB119B110E04FF400250BE01E8951
:101FB000B4420AD91469012565F3DC4414611C8913
:101FC000156964F31205156122E01D896619761EF4
:101FD00096FBF5F5166965F3DC461661DE88156932
:101FE00066F3120515619D7A012D11D1156925F051
:101FF000C04505F100551561C568D5F80858ED05CF
:10200000156802D445F0005501E045F08055156093
:10201000C568AD68AD0607D51D6855611D682544C6
:102020001D60DD882C1BDC80146844F004441460BF
:10203000DA88002A06D0C2689268920602D4F0BC00
:1020400000F0F0B8F0BC70472DE9F0410D460746AE
:10205000C06801F00F014FF4106202EB4111461805
:10206000D0F83418B468E940C907D0F8100840EA3D
:10207000116004405A20B060200603D52946384636
:1020800000F0D0F8E00723D0012007EB0514B06082
:102090003C342DB121463846BDE8F041FFF7CDBBB9
:1020A000E08828B13846BDE8F0410021FFF76BBF5A
:1020B00021463846FFF7C1FBF8688068800607D5DF
:1020C000A088002804D13846BDE8F04100F074B87B
:1020D000BDE8F08170B50646C2680D464FF4306029
:1020E00000EB451011188868D2F8142810403022EF
:1020F0008A60020706D5082088603046BDE8704037
:10210000FFF758BEC00729D0012006EB05148860F0
:10211000F06880689C3480060FD520890969401AD0
:10212000A18880B20144A180216808442060A08871
:10213000E84202D1304600F03FF81DB9E088A1889E
:10214000884205D121463046BDE87040FFF79BBB71
:102150003046BDE870400021FFF7D7BE70BD0000DB
:10216000124BC26882B09A4214D199B110490A68E0
:1021700042F080420A60096801F080410091C16824
:102180008A6B22F480328A63C168CA68094B1A409C
:10219000CA6008E0D16841F04001D160C1688A6B33
:1021A00042F480328A6302B000F032B8000004408A
:1021B00030380240BFFF8DFFC2680849C2F8101BCB
:1021C000C1688A68920607D5021DC1F8142BC06841
:1021D0004FF08021C0F8001B704700001800086015
:1021E00010B5C3689C6824F001049C60D21C92085E
:1021F00006E0C36803F580531B68521E08C192B203
:10220000002AF6D1C068816841F00101816010BDEB
:10221000C0680169002903DA016941F00101016127
:1022200070470000F0B540F61812C46802EB411286
:1022300000EB0113A258012695008E40B3F844200C
:102240003C33AA4225D8DD88954200D82A461D682D
:10225000A76827F00107A760D41C4FF48057A40893
:1022600007EB013708E000BFD0F80CE055F804CBCD
:102270004EF807C0641EA4B2002CF5D1C468A5684E
:1022800045F00105A5601C6814441C60DC88A21A96
:10229000DA80002908D0D988C0680029D0F834181D
:1022A00003D03143C0F83418F0BDB143FAE7000061
:1022B000F0B52349C6688E4202D14FF0060501E011
:1022C0004FF004054FF010044FF040024FF00001B2
:1022D00009E000BF00EB0113B3F8A430934200D92A
:1022E0001A46491CC9B2A942F4D3D21C910801EB89
:1022F00045030D337362B0F84410C91C8908A1422C
:1023000000D22146C66843EA0142B26201221602A7
:1023100013E00B4400EB0211B1F84410C91C89080A
:10232000A14200D22146D0F80CC006EB820E43EA4F
:1023300001474CF80E70521CD2B2AA42E9D3F0BD4C
:102340000000044010B50446FFF7B2FF2046BDE888
:102350001040FFF786BD00002DE9F0410446C0683B
:10236000456981690D407CD0D0F81868D0F81C18F8
:102370000E40E90623D5006A00F00F01C0F30A18E9
:1023800004EB011700F4F0109C37B0F5802F03D058
:10239000B0F5402F13D10DE0424620463968FFF7D3
:1023A0001FFFB98801EB0800B880396801EB08000D
:1023B000386004E00822211D2046FFF711FF2803A2
:1023C00011D54FF000080CE0F80703D04146204635
:1023D000FFF780FE08F1010000F0FF08780860F3C5
:1023E0001F46370CF0D1680312D54FF000080CE0FF
:1023F000F80703D041462046FFF726FE08F101000A
:1024000000F0FF08780860F30F0637043F0CEFD1A7
:10241000E8044FF0000719D5E1684FF48050486197
:1024200084F82470E068D0F8041821F00101C0F8A5
:102430000418E16810200861E16820200861204646
:10244000FFF7E8FC0021204600F0FFF9A80424D59E
:10245000E1684FF4005000264861E068D0F80418A5
:1024600000E053E041F48071C0F80418E068D0F84F
:10247000081811F0060F41D0FEF75CFB2449B1FBB0
:10248000F0F0062800D20620E168CA6860F38D22C9
:10249000CA6031462046FFF77FFC002D10DAE06865
:1024A000D0F8041821F00101C0F80418E1684FF0D9
:1024B00000404861E16909B12046884784F82470EA
:1024C00028050FD5E1684FF400604861E068D0F856
:1024D0000808C00706D0022084F82400A16909B1C9
:1024E00020468847280711D5E16808204861216AFD
:1024F00000290BD02046BDE8F0410847C1680126FD
:1025000021F4705101F51051C160C2E7BDE8F081BE
:1025100000F8590DF8B50446C068424E00270D4634
:10252000B04208D14048016841F0005101600068A4
:1025300000F000500EE03C48001D016841F08001B1
:10254000016039481430016841F48041016000683D
:1025500000F4804000904020A4F84400A4F8A400B7
:1025600084F8467084F8A670032084F82400E0689C
:10257000816821F001018160216909B12046884705
:10258000E9792046FFF7ECFD287A20B1E068816800
:1025900041F026018160E068B04201D1062600E0EA
:1025A0000426C16821F0C04141F08041C160E0686B
:1025B000D0F8041841F00201C0F80418E068816BFB
:1025C00041F400118163E068C0F8007EE8790028DA
:1025D000E068D0F8001802D021F0030101E041F0DA
:1025E0000301C0F8001800250AE02946204600F043
:1025F00065F845F08001204600F060F86D1CEDB2F2
:10260000B542F2D3E068D0F8101821F48071C0F818
:102610001018E0688168890602D50449C0F83018AE
:10262000F8BD000000000440303802400301810082
:1026300010B504466FF08040E16848612046FFF71E
:10264000E9FBE1680E488A68920601D50C4810380B
:102650008861E1680B20C1F81008E1682B20C1F8FF
:102660001408E1680020C1F81C0801212046FFF78A
:10267000EFFBE068816841F00101816010BD00005E
:1026800010380C80C0687F2904D901F00F014FF485
:10269000106201E04FF4306202EB4111084401681E
:1026A00021F4001101600168C1F38141022903D3C3
:1026B000016841F0805101607047000030B501238E
:1026C000C46801F00F027F2905D900BF4FF41061E3
:1026D00001EB421103E04FF4306505EB4111D4F8F2
:1026E0003C58214413D903FA02F325EA0305C4F840
:1026F0003C58C468D4F81C5825EA0305C4F81C5893
:10270000C0684FF0200343EA821202610EE002F13A
:10271000100203FA02F325EA0305C4F83C58C06826
:10272000D0F81C2822EA0302C0F81C280A684FF0DF
:102730000000002A03DA4FF090420A6000E00860CF
:102740000861FF20886030BDF0B50126C46801F043
:102750000F057F2905D900BF4FF4106707EB451718
:1027600003E04FF4306707EB41173C4405D900BF45
:1027700000EB051101F13C0103E000EB011101F157
:102780009C010B818A72C068D0F81C2802D906FA15
:1027900005F603E005F1100306FA03F642EA060225
:1027A000C0F81C282068000415D40A89206862F348
:1027B0000A002060897A206861F3934020602068D5
:1027C00065F399502060206840F0805020602068B8
:1027D00040F400402060F0BD30B400EB011444F838
:1027E0009C2F0022E380A28030BCFFF78EBB30B468
:1027F00001F00F0100EB011444F83C2FE380A380AB
:1028000030BCFFF7C0BB30B4C2687F2906D901F0E5
:102810000F034FF4106404EB431303E04FF43063F1
:1028200003EB41131A441368002B03DB136823F0F6
:1028300080431360136843F400131360002902D12E
:1028400030BCFFF7B9BC30BC7047C068D0F8002876
:1028500061F30A12C0F8002870470000F0B40025A8
:10286000114C124E06E0974200D1254604F5017442
:10287000B44204DAD4F80072B7F1FF3FF3D1B442A6
:1028800002DB0120F0BC704705B12C46002540CC8E
:102890006D1CF64340C1802DF9DB5B1E02D0F0BCFD
:1028A000521CDBE70020EDE70000040800000E08E2
:1028B0002DE9F047164698468146194D194A06E01B
:1028C000954202DB0120BDE8F08705F50175D5F8DA
:1028D0000002401CF4D10C4604CCD2B180280FDA9F
:1028E0000C4600272068C1432846FDF72BFD241D18
:1028F0002D1D7F1C802FF5DB31462846FDF722FD7C
:10290000B8F1010309D0721C21464846BDE8F047E2
:10291000CEE7401C8028DFDBF2E70020D3E7000091
:102920000000040800000E0830B54FF6FF740023C5
:1029300004EA42051C4613E09A0702D40278120901
:1029400003E010F8012B02F00F020A2A01D2303204
:1029500000E03732CA545B1CDAB28C54521CD3B23A
:10296000AB42E9D3CC545B1CD8B20C5430BDFEE76B
:102970000F4810B5006881210E4C4174012101748B
:1029800081746168FFF76EF90B48822100688174D9
:10299000022141748321C1746168FEF79DFDD4E971
:1029A0000010FFF74BF96068BDE81040FEF72ABE43
:1029B000502F0008C02E0008682F0008FFF778BFCE
:1029C0000907090E002804DB00F1E02080F800145C
:1029D000704700F00F0000F1E02080F8141D7047F0
:1029E00002E008C8121F08C1002AFAD170477047D8
:1029F000002001E001C1121F002AFBD1704770B511
:102A000005686979202924D1817E002921D00446D6
:102A10004026817C334602222846FEF71CFF617C5B
:102A2000334602222846FEF716FFE17C01F00F0034
:102A3000062804D2082303222846FEF70CFFE0688C
:102A40004268002A05D004F114012046BDE8704018
:102A5000104770BD70B50446807E002817D02568E9
:102A6000A17C2846FEF7B9FE617C2846FEF7B5FE3C
:102A7000E17C01F00F00062802D22846FEF7ADFEE9
:102A8000E068816809B1204688470020A07670BDC3
:102A900070B514460D460646342215492046FDF70A
:102AA000C2FBA570681CE071A57284F8225084F8FE
:102AB0002D00A07684F82300207484F83300307C45
:102AC00010B1A071317CE173F17C84F8261004F11F
:102AD0003402717C3068FEF798FE343085B262199A
:102AE000B17C3068FEF791FE284480B270BD0000D2
:102AF0006C2F0008C0680068704770B50D46064628
:102B0000817C0068FEF751FEA8421DD1AC88BCB1A3
:102B10002889401E204205D1B4830022304629680E
:102B2000FEF72FFDE87A04280ED0F0680369002B29
:102B30000AD028682246011B3046BDE8704018477D
:102B4000B48B0020B083EDE770BD30B4C268D368A9
:102B5000002B04D08A880C68A11A30BC184730BCFE
:102B6000704770B5046803222179C1F3411101292E
:102B700018D1617900F11405202904D0212909D048
:102B800022290FD10DE0FFF765FF29462046FEF709
:102B900087FD04E0072229462046FEF792FD024603
:102BA00000E00022104670BD70B514460546054988
:102BB000FEF7DEFC22462846BDE870400149FEF7DC
:102BC000E0BC0000D804002008B5FDF777FEFEF752
:102BD00029FC0B48016841F001010160016801F026
:102BE00001010091016841F080010160006800F07E
:102BF00080000090FEF796F9FFF7BAFEFEE70000AE
:102C00003038024070B504680546417C2046FEF726
:102C1000F0FD297C2046FEF7ECFD002404260FE0A1
:102C200004EB4401E86806EBC101405830B121468D
:102C30002846FEF7C9F9416820468847641CE4B27B
:102C4000A87CA042ECD270BD70B505460C48144675
:102C500082682260C0686060A170491C217204F122
:102C60000902297C2868FEF7D0FD093086B2A21936
:102C7000697C2868FEF7C9FD304480B270BD000051
:102C8000C42F0008C06840691030704770B5044612
:102C9000056890F8440202280CD0032801D00428CB
:102CA00018D194F84502002814D12046BDE87040A0
:102CB00000F0C1B82046FEF79AFA94F840020028C6
:102CC00008D0042084F84402617C2846BDE87040A6
:102CD000FEF76DBE70BD000070B506680446402565
:102CE000417C2B4602223046FEF7C1FD217C2B465B
:102CF00002223046FEF7BBFD002084F845020E4854
:102D00000068C4F83402204600F088F800250EE080
:102D1000E06805EB450150F8310030B12946204606
:102D2000FEF752F90168284688476D1CEDB2A07C79
:102D3000A842EDD270BD0000C82F00082DE9F04177
:102D40000446076890F844020026042568B101286B
:102D50004FD094F84502B0B3012804D1204600F0CA
:102D60005DF884F84562BDE8F081D4F81802C4F833
:102D70003802D4F81C02C4F83C0284F84062888807
:102D80001F2827D12449D4F814020968884221D188
:102D900094F82102A17C88421CD894F82202C8B180
:102DA000102817D82046FEF720F9D4F81C0250B19D
:102DB00094F840020028D6D084F8445294F82002B7
:102DC00010B9217C01E021E0617C3846BDE8F0418A
:102DD000FEF7EDBD202205212046FEF78FFA84F88C
:102DE0004452022084F84502217C3846FEF7DFFD7C
:102DF000EAE72046FEF740FA94F8400210B184F862
:102E00004452DEE7D4F83C020028ACD12046BDE8AD
:102E1000F04100F010B80000C42F000830B40021C9
:102E200080F844120468017C00F50572204630BC2D
:102E30001F23FEF736BD10B50446417C00680D2304
:102E400004F50D72FEF79DFD2046BDE81040FFF72A
:102E5000E5BF10B50246006803210379C3F34113AF
:102E6000012B13D14379FE2B02D0FF2B0ED109E0A9
:102E7000917C80F8FC10012200F1FC01FEF721FC9E
:102E8000014603E0012082F845020021084610BDFA
:102E9000000000000000000001020304060708090A
:102EA00010300008F4010000000000002C30000881
:102EB000FFFF0000FC2F0008FFFF000100000000E2
:102EC000A02E0008DC020020040309041201010204
:102ED00000000040FFFFFFFFFFFF10203001000057
:102EE000050F280002071002000000001C1005005A
:102EF000DF60DDD88945C74C9CD2659D9E648A9F62
:102F00000000030600000100008002022000000013
:102F10004C34303500000000466C617368205374F7
:102F20006F72616765000000312E3031008002024F
:102F3000200000004C3430350000000052414D208C
:102F400053746F726167650000000000312E3032EB
:102F5000480000203C300008000000000000000095
:102F6000A92B0008000000009C020020080B0002B2
:102F7000020201010904000001020201010524000E
:102F800010010524010001042402020524060001A9
:102F90000705820308001409040100020A00000169
:102FA000912A0008F52A000800000000552A0008B0
:102FB000632B0008FF2900084B2B0008FB2A0008A0
:102FC000000000005553424355534253090400008A
:102FD0000208065001000000492C0008852C00085A
:102FE000D92C0008052C0008532E00080000000012
:102FF0003D2D00088D2C000800000000536572690B
:10300000616C2F4D6173732073746F72616765001B
:1030100053657269616C2F4D6173732073746F72A5
:1030200061676520636F6E66696700004D6F636E50
:10303000696B204D61746A617A0000007374616E7F
:103040006461726420492F4F000000006C3000085A
:1030500000000020BC020000E8020008A8300008C0
:10306000BC0200209C420000F029000832018210BE
:103070001324F433F604220213A10F140841031B96
:1030800008E70813BD291A08241420082F0A12087B
:10309000181A2C189119511A181401FF01FF014F29
:0830A000220113542F02100855
:040000050800018965
:00000001FF
